:100000000C9437000C94E9010C94E9010C9436012E
:100010000C94E9010C94E9010C94E9010C94E901B8
:100020000C94E9010C94E9010C94E9010C94E901A8
:100030000C94E9010C94E9010C94E9010C94E90198
:100040000C94E9010C94E9010C94E9010C94E90188
:100050000C94E9010C94D5000C94E9010C94E9018D
:100060000C94E9010C94E9010100010480001124C1
:100070001FBECFEFD8E0DEBFCDBFE8E6F0E040E046
:1000800017C0B591A59135912591059107FD0CC03B
:1000900095918591EF01F92FE82F05900D92A21708
:1000A000B307D9F7FE0104C01D92A217B307E1F709
:1000B000ED36F40731F70E94B7010C94AC01F894C7
:0200C000FFCF70
:1000C200E89409C097FB3EF49095809570956195F0
:1000D2007F4F8F4F9F4F9923A9F0F92F96E9BB27A6
:1000E2009395F695879577956795B795F111F8CF22
:1000F200FAF4BB0F11F460FF1BC06F5F7F4F8F4F8D
:100102009F4F16C0882311F096E911C0772321F082
:100112009EE8872F762F05C0662371F096E8862F1A
:1001220070E060E02AF09A95660F771F881FDAF771
:0A013200880F9695879597F90895B8
:10013C00ECE7F0E080818064808380818F7780831E
:10014C0080818E7F808380818D7F808380818B7F77
:10015C0080838081877F8083EBE7F0E080818E7FD6
:10016C00808380818D7F808380818B7F8083EAE791
:10017C00F0E08081846080838081826080838081D4
:10018C0081608083808188608083808180628083AD
:0E019C008081806880838081806480830895E4
:1001AA001F920F920FB60F9211242F933F934F93E2
:1001BA005F936F937F938F939F93AF93BF93EF93C5
:1001CA00FF93609178007091790080E090E00E943E
:1001DA006100609300017093010180930201909382
:1001EA000301FF91EF91BF91AF919F918F917F9101
:1001FA006F915F914F913F912F910F900FBE0F908A
:04020A001F90189594
:10020E000E94620188F09F5798F0B92F9927B75135
:10021E00B0F0E1F0660F771F881F991F1AF0BA959C
:10022E00C9F714C0B13091F00E94E201B1E0089517
:10023E000C94E201672F782F8827B85F39F0B93F09
:10024E00CCF3869577956795B395D9F73EF490954F
:0E025E008095709561957F4F8F4F9F4F08954B
:10026C001F920F920FB60F9211242F933F934F931F
:10027C005F936F937F938F939F93AF93BF93EF9302
:10028C00FF930E94CA01FF91EF91BF91AF919F9193
:10029C008F917F916F915F914F913F912F910F9023
:0802AC000FBE0F901F90189582
:1002B40057FD9058440F551F59F05F3F71F0479513
:1002C400880F97FB991F61F09F3F79F087950895F8
:1002D400121613061406551FF2CF4695F1DF08C017
:1002E400161617061806991FF1CF86957105610534
:0402F40008940895CD
:1002F8002198299A7894E8E6F0E0808181608083EB
:0C030800EBE6F0E08081826080830895C5
:100314003A9A3B9A3C9A3D9A549A559A569A579AC5
:08032400209A0E94D201089505
:10032C000E947C010E948A0187E690E00E94A10154
:06033C000E949E000895DE
:100342009093C5008093C40088E18093C1008EE041
:060352008093C200089533
:10035800EC010E94EE010E94ED01CE010E94EF0126
:06036800CE010E94EB0132
:10036E000E9496010E94C1010E940701862F0E94E1
:04037E00DA01F8CFD9
:10038200609100017091010180910201909103013D
:020392000895CC
:1003940088B1837C88B98BB18F708BB92898089504
:1003A40088B18C6388B98BB1806F8BB9289A089512
:1003B400E0ECF0E0908195FFFDCF8093C6000895B6
:0E03C400E894BB2766277727CB0197F90895A9
:0403D2000C94000087
:0403D6000E945F0022
:0203DA00089584
:0203DC00089582
:0203DE00089580
:00000001FF
