:100000000C9434000C947C000C947C000C947C00C8
:100010000C9465000C947C000C947C000C947C0087
:100020000C947C000C947C000C947C000C947C0060
:100030000C947C000C947C000C947C000C947C0050
:100040000C947C000C947C000C947C000C947C0040
:100050000C947C000C947C000C947C000C947C0030
:100060000C947C000C947C0011241FBECFEFD8E0D0
:10007000DEBFCDBF0E9477000C945A00F894FFCFEA
:100080002198299A7894E8E6F0E080818160808365
:0C009000EBE6F0E0808182608083089540
:10009C003A9A3B9A3C9A3D9A549A559A569A579A40
:0800AC00209A0E946F000895E4
:1000B400EC010E9481000E948000CE010E94820017
:0600C400CE010E947E0047
:1000CA008F938FB78F9388B1887088B98F918FBFBC
:0400DA008F91189555
:1000DE0088B1817E88B98BB18F708BB928980895BD
:0A00EE000E9440000E944E00FFCF68
:0400F8000C94000064
:0400FC000E943E0020
:02010000089560
:0201020008955E
:0201040008955C
:00000001FF
