:100000000C9434000C946D010C946D010C94E5007B
:100010000C946D010C946D010C946D010C946D01A8
:100020000C946D010C946D010C946D010C946D0198
:100030000C946D010C946D010C946D010C946D0188
:100040000C946D010C946D010C946D010C946D0178
:100050000C946D010C9471010C946D010C946D0164
:100060000C946D010C946D0111241FBECFEFD8E0EC
:10007000DEBFCDBF0E94C0000C945001F894FFCFAA
:100080008C3008F43A9A94EF980F9B3018F497B19B
:100090009C6097B999EE980F9B3018F497B19C61CA
:1000A00097B99EED980F9B3018F497B19C6397B960
:1000B00093ED980F9B3020F497B19C6397B9549AB5
:1000C00098EC980F9B3030F497B19C6397B99AB134
:1000D00090639AB99DEB980F9B3030F497B19C6375
:1000E00097B99AB190679AB992EB980F9B3030F418
:1000F00097B19C6397B99AB1906F9AB989558C3032
:1001000038F487B18C6387B98AB1806F8AB9209A35
:02011000089550
:10011200ECE7F0E080818064808380818F77808348
:1001220080818E7F808380818D7F808380818B7FA1
:1001320080838081877F8083EBE7F0E080818E7F00
:10014200808380818D7F808380818B7F8083EAE7BB
:10015200F0E08081846080838081826080838081FE
:1001620081608083808188608083808180628083D7
:0E01720080818068808380818064808308950E
:100180000E9427012FEF83EC99E02150804090409E
:10019000E1F700C00000C0E008E710E001C0C0E0E7
:1001A0008C2F0E944000CF5FF801808191810E94D6
:1001B0006501FFEF23EC89E0F15020408040E1F73A
:0A01C00000C00000C43658F7EBCF72
:1001CA001F920F920FB60F9211242F933F934F93C2
:1001DA005F936F937F938F939F93AF93BF93EF93A5
:1001EA00FF93199B0E940A01FF91EF91BF91AF9172
:1001FA009F918F917F916F915F914F913F912F9135
:0A020A000F900FBE0F901F90189583
:10021400EAE7F0E080818F77808380917C0080FF23
:1002240006C0ECE7F0E080818E7F808305C0ECE7B8
:10023400F0E0808181608083EAE7F0E0808180687B
:0A0244008083808180648083089528
:10024E000E9437010E945B01EBE7F0E08081806441
:10025E00808387E690E00E9445010E948900089500
:10026E002198299AE8E6F0E0808181608083EBE6B0
:0C027E00F0E08081826080837894089515
:10028A009093C5008093C40088E18093C1008EE0FA
:06029A008093C2000895EC
:1002A000EC010E9473010E947201CE010E94740150
:0602B000CE010E946F0167
:1002B6003A9A3B9A3C9A3D9A549A559A569A579A24
:0402C600209A0895DD
:1002CA00E0ECF0E0908195FFFDCF8093C6000895A1
:0402DA000C94000080
:0402DE000E943E003C
:0202E20018956D
:0202E40008957B
:0202E600089579
:0202E800089577
:00000001FF
