:100000000C9434000C94C1000C94C1000C9440007A
:100010000C94C1000C94C1000C94C1000C94C1005C
:100020000C94C1000C94C1000C94C1000C94C1004C
:100030000C94C1000C94C1000C94C1000C94C1003C
:100040000C94C1000C94C1000C94C1000C94C1002C
:100050000C94C1000C94C1000C94C1000C94C1001C
:100060000C94C1000C94C10011241FBECFEFD8E046
:10007000DEBFCDBF0E9472000C949600F894FFCFB3
:100080001F920F920FB60F9211242F933F934F930D
:100090005F936F937F938F939F93AF93BF93EF93F0
:1000A000FF930E94A100FF91EF91BF91AF919F91AB
:1000B0008F917F916F915F914F913F912F910F9011
:0800C0000FBE0F901F90189570
:1000C8002198299A7894E8E6F0E08081816080831D
:0C00D800EBE6F0E08081826080830895F8
:1000E4000E9464000E947F0087E690E00E948B00DB
:0A00F4000E94B9000E94B100FBCF8A
:1000FE003A9A3B9A3C9A3D9A549A559A569A579ADE
:08010E00209A0E94A900089547
:100116009093C5008093C40088E18093C1008EE06F
:060126008093C200089561
:10012C00EC010E94C6000E94C500CE010E94C700CF
:06013C00CE010E94C30089
:1001420088B1837C88B98BB18F708BB92898089558
:1001520088B18C6388B98BB1806F8BB9289A089566
:10016200E0ECF0E0908195FFFDCF8093C60008950A
:10017200E0ECF0E080818823ECF78091C6000895DE
:040182000C940000D9
:040186000E943E0095
:02018A000895D6
:02018C000895D4
:02018E000895D2
:00000001FF
