:100000000C948D000C94A6070C94A6070C94620621
:100010000C94A6070C94A6070C94A6070C94A607AC
:100020000C94A6070C94A6070C94A6070C94A6079C
:100030000C94A6070C94A6070C94A6070C94A6078C
:100040000C94A6070C94A6070C94A6070C94A6077C
:100050000C94A6070C9477050C94A6070C94A6079D
:100060000C94A6070C94A607AE02B002B002B00230
:10007000B002B002B002B002B002B002B002B002F0
:10008000B002B002B002B002B002B002B002B002E0
:10009000A602B002B002B002B002B002B002B002DA
:1000A000B002B002B002B002B002B002B002B002C0
:1000B000B002B002A802B002B002B002B002B002B8
:1000C000AA02B002B002AC02B002B002B002B002AA
:1000D000B202B002B002B002B002B002B002B0028E
:1000E000B002B002B002B002B002B002B002B00280
:1000F000B002B002A202B002B002B002B002B0027E
:10010000A40201000152000F5A015201548001540F
:100110000156000FAC015601588011241FBECFEFCD
:10012000D8E0DEBFCDBFE2E0F1E041E017C0B5911D
:10013000A59135912591059107FD0CC0959185916B
:10014000EF01F92FE82F05900D92A217B307D9F709
:10015000FE0104C01D92A217B307E1F7EA31F407CC
:0E01600031F70E949B060C945407F894FFCFD1
:10016E000000000000000000040E0E040400040055
:10017E001B1B120000000000000A1F0A0A1F0A00C3
:10018E00080E100C021C04001919020408131300A7
:10019E000814140815120D000C0C080000000000C5
:1001AE0004080808080804000804040404040800ED
:1001BE00000A0E1F0E0A00000004041F04040000B3
:1001CE0000000000000C0C080000001F00000000E2
:1001DE0000000000000C0C000001020408100000DA
:1001EE000E11131519110E00040C040404040E0054
:1001FE000E11010608101F000E11010E01110E0046
:10020E0002060A121F0202001F10101E01110E001C
:10021E000608101E11110E001F0102040808080026
:10022E000E11110E11110E000E11110F01020C0004
:10023E0000000C0C000C0C0000000C0C000C0C0848
:10024E00020408100804020000001F00001F000036
:10025E0008040201020408000E1101060400040045
:10026E000E11171517100E000E11111F111111007E
:10027E001E11111E11111E000E11101010110E0064
:10028E001E11111111111E001F10101E10101F0033
:10029E001F10101E101010000E11101711110F004C
:1002AE001111111F111111000E04040404040E008B
:1002BE000101010111110E00111214181412110076
:1002CE001010101010101F00111B1511111111001C
:1002DE0011191513111111000E11111111110E001A
:1002EE001E11111E101010000E11111115120D00FD
:1002FE001E11111E121111000E11100E01110E0001
:10030E001F040404040404001111111111110E0034
:10031E0011111111110A04001111151515150A00EC
:10032E0011110A040A1111001111110A040404001A
:10033E001E02040810101E000E08080808080E0001
:10034E0000100804020100000E02020202020E005A
:10035E00040A110000000000000000000000001F51
:10036E000C0C04000000000000000E010F110F0025
:10037E0010101E1111111E0000000E1110110E0092
:10038E0001010F1111110F0000000E111F100E00B0
:10039E000608081E0808080000000F11110F010EB4
:1003AE0010101C12121212000400040404040400A3
:1003BE00020006020202120C10101214181412007F
:1003CE00040404040404060000001A15151111009B
:1003DE0000001C121212120000000E1111110E005C
:1003EE0000001E1111111E1000000F1111110F012E
:1003FE000000160908081C0000000E100E010E0069
:10040E0000081E08080A04000000121212160A0044
:10041E0000001111110A040000001111151F0A002D
:10042E00000012120C12120000001212120E04180A
:10043E0000001E020C101E00060808180808060010
:10044E0004040404040404000C02020302020C005F
:10045E0000000000000000000A000E010F110F0046
:10046E000A000E1111110E000A00121212160A00C5
:10047E000A0E111F111111000A0E111111110E0089
:10048E000A11111111110E000C12121C12121C1055
:08049E00060909060000000038
:1004A6002F923F924F925F926F927F928F929F927E
:1004B600AF92BF92CF92DF92EF92FF920F931F936C
:1004C600CF93DF93CDB7DEB72F970FB6F894DEBF85
:1004D6000FBECDBF99878887862F4A87412FCD8645
:1004E600E885F9851081112309F4D6C0922F990F5A
:1004F600990F990F920F3A853150390F3B87922FFA
:10050600990F920F990F9C871E82622F70E0AE2C76
:10051600BF2C09834A83EB827F876E877F2C01C0BD
:100526008F811B37E8F0412F50E0FA01E05BF109BB
:10053600ED34F10590F4EC5CFF4F0C94960710E84F
:100546000FC011E80DC012E80BC013E809C014E88B
:1005560007C015E805C016E803C01FE301C01FE782
:100566007C85780F7F83472F41500D852B856A85C3
:100576000E945A0480EE810F90E0880F991F880F21
:10058600991F880F991F9C01092E000C440B2259B4
:100596003E4F4F4FF901C49047FDC0800196092E8A
:1005A600000CAA0B9C014A2F22593E4F4F4F29019E
:1005B600642E1D821C820DC0F201C49067FCC080AF
:1005C6008C819D81089708F0C12C9FEF491A590A22
:1005D600690AEE85FF85EF2B09F446C088248394CB
:1005E600912CEC2CF12C2E853F85121613060CF05F
:1005F6004EC001E010E08A2D9B2D0E945F070F5F21
:100606001F4F6E857F8560177107ACF740C0C70125
:100616000C2C02C0959587950A94E2F780FD03C0DD
:100626003B80272C02C039802A808E859F8518162C
:1006360019066CF401E010E0832D922D0E945F07ED
:100646000F5F1F4FEE85FF85E017F107ACF7F1E06E
:10065600CF1AD108E0F67FEF871A970A8E859F8515
:100666008815990508F0BFCFEC81FD813196FD8391
:10067600EC83399709F0A0CF3E813F5F3E83E88542
:10068600F985E30FF11D108111114ACF05C0689459
:10069600CC24C2F8D12CBBCF2F960FB6F894DEBF70
:1006A6000FBECDBFDF91CF911F910F91FF90EF90BD
:1006B600DF90CF90BF90AF909F908F907F906F907C
:0A06C6005F904F903F902F90089531
:1006D000CF92DF92EF92FF926B017C010E9469073B
:1006E00020E030E0A901C701B6010E949C078111FA
:1006F00002C00E94690720E030E0A901C701B601ED
:100700000E94A10718165CF420E030E040E351E4B9
:10071000C701B6010E949C0718160CF0429A20E00F
:1007200030E040E351E4C701B6010E94A10718166A
:100730006CF420E030E040EB51E4C701B6010E94C8
:100740009C0718161CF088B18C6088B920E030E056
:1007500040EB51E4C701B6010E94A10718166CF4E2
:1007600020E030E044E052E4C701B6010E949C075B
:1007700018161CF088B18C6188B920E030E044E0A4
:1007800052E4C701B6010E94A10718166CF420E0DC
:1007900030E040E352E4C701B6010E949C071816FE
:1007A0001CF088B18C6388B920E030E040E352E46B
:1007B000C701B6010E94A107181674F420E030E0CA
:1007C0004CE552E4C701B6010E949C07181624F0BC
:1007D00088B18C6388B95C9A20E030E04CE552E443
:1007E000C701B6010E94A107181684F420E030E08A
:1007F00044E852E4C701B6010E949C07181634F081
:1008000088B18C6388B98BB180638BB920E030E00C
:1008100044E852E4C701B6010E94A107181684F407
:1008200020E030E04AE952E4C701B6010E949C078B
:10083000181634F088B18C6388B98BB180678BB996
:1008400020E030E04AE952E4C701B6010E94A10766
:10085000181684F420E030E040EB52E4C701B60102
:100860000E949C07181634F088B18C6388B98BB14C
:10087000806F8BB920E030E040EB52E4C701B60155
:100880000E94A10718168CF420E030E048EC52E4F6
:10089000C701B6010E949C0718163CF088B18C6312
:1008A00088B98BB1806F8BB9289AFF90EF90DF9059
:0408B000CF90089548
:1008B4000F93CF93DF93CDB7DEB72C970FB6F89491
:1008C400DEBF0FBECDBF9CE0E0E0F1E0DE0111969B
:1008D40001900D929A95E1F70230B1F1033009F4D9
:1008E4005CC0013089F090E092619E838D8350E07A
:1008F400556158874F8370E073617A87698730E068
:1009040036613C872B8763C0E3E0F8E1FC83EB832B
:10091400E3E8F0E0DF01A81BB109CD0192619E83F9
:100924008D83E41BF109F561F887EF838FEA90E08A
:10093400AC01461B510953615A874987821B9109AF
:1009440096619C878B8743C0E5E0F8E1FC83EB83E9
:10095400643838F4E3E8F0E0DF01A61BB109BD0117
:1009640002C060E070E072617E836D83243838F4E5
:1009740063E870E0FB01E21BF1099F0102C020E083
:1009840030E0356138872F8390E093619A878987B7
:1009940050E056615C874B871AC0E6E0F8E1FC83BF
:1009A400EB8370E072617E836D8330E0356138875C
:1009B4002F832FEA30E0B901681B7109CB019361E1
:1009C4009A878987241B310936613C872B87BE01AE
:1009D4006F5F7F4F80E846E050E00E94E6052C966A
:1009E4000FB6F894DEBF0FBECDBFDF91CF910F914C
:0209F400089564
:1009F600CF93DF93CDB7DEB7C654D1090FB6F894BF
:100A0600DEBF0FBECDBF86E4ECE0F1E0BE016F5F56
:100A16007F4FDB0101900D928A95E1F72FEF85EA72
:100A26009EE0215080409040E1F700C000008BB16D
:100A36001BB82FE789EA93E0215080409040E1F708
:100A460000C000002A9A2FE789EA93E021508040EF
:100A56009040E1F700C000005A9A2FE789EA93E038
:100A6600215080409040E1F700C000005B9A2FE7DC
:100A760089EA93E0215080409040E1F700C00000F1
:100A860080E842E050E00E94E6052FE789EA93E01D
:100A9600215080409040E1F700C00000BE016B5F2E
:100AA6007F4F80E84AE050E00E94E6052FE789EA9A
:100AB60093E0215080409040E1F700C00000BE0165
:100AC600675E7F4F80E847E150E00E94E6058AB105
:100AD6008C608AB9CA5BDF4F0FB6F894DEBF0FBED3
:080AE600CDBFDF91CF9108950F
:100AEE001F921FB61F9211242F933F938F939F93A4
:100AFE0080917C0080FF05C0809179008093560123
:100B0E0056C0809157018F5F809357018091570196
:100B1E00813059F48FEF90E09093550180935401FA
:100B2E00109253011092520142C0809157018B30A6
:100B3E0088F5209178003091790080915401909140
:100B4E0055018217930728F08091780090917900D3
:100B5E0004C080915401909155019093550180935A
:100B6E00540120917800309179008091520190913A
:100B7E0053012817390728F0809178009091790059
:100B8E0004C0809152019091530190935301809330
:100B9E0052010DC010925701809152019091530154
:100BAE002091540130915501821B809356019F91E3
:0E0BBE008F913F912F911F901FBE1F90189591
:100BCC004F925F926F927F928F929F92AF92BF9251
:100BDC00CF92DF92EF922A01612C712C41145104B7
:100BEC006104710419F1C62ED72EE82E812C912C9C
:100BFC0054015A9AF6015E2D0E948107872F0E949C
:100C0C008907F6018491E7FC80810E9489075A9834
:100C1C008FEF881A980AA80AB80A92E0C90ED11C5C
:100C2C00E11C84149504A604B70418F3EF90DF902C
:100C3C00CF90BF90AF909F908F907F906F905F9070
:040C4C004F90089528
:100C5000ECE7F0E080818064808380818F778083FF
:100C600080818062808380818E7F808380818D7F80
:100C7000808380818B7F80838081877F8083EBE787
:100C8000F0E080818E7F808380818D7F8083808172
:100C90008B7F8083EAE7F0E08081846080838081BD
:100CA000826080838081816080838081886080838E
:100CB000808180628083808180688083808180647D
:040CC0008083089590
:100CC4001F920F920FB60F9211242F933F934F93BD
:100CD4005F936F937F938F939F93AF93BF93EF93A0
:100CE400FF93E8E6F0E0908181E08927808388E53E
:100CF40092E00197F1F7199905C00E94E4068FEF7D
:100D04000E947907E8E6F0E0908181E089278083FA
:100D1400FF91EF91BF91AF919F918F917F916F91CF
:100D24005F914F913F912F910F900FBE0F901F90A5
:020D3400189510
:100D3600CF93DF9300D00F92CDB7DEB70E941B078B
:100D460060E070E088E492E40E9468030E94050770
:100D560084E3898382E38A831C826894CC24C1F865
:100D6600EE24EA94FE2C00E010E022E04EE164E17D
:0A0D7600CE0101960E945302FFCF48
:100D8000990F0008550FAA0BE0E8FEEF161617069C
:100D9000E807F907C0F012161306E407F50798F004
:100DA000621B730B840B950B39F40A2661F0232B1D
:100DB000242B252B21F408950A2609F4A140A69599
:080DC0008FEF811D811D0895D4
:100DC800EAE7F0E080818F77808380917C0080FF64
:100DD80008C00E947107ECE7F0E080818E7F808375
:100DE80007C00E946907ECE7F0E08081816080839A
:100DF800EAE7F0E080818068808380818064808376
:020E080008954B
:100E0A000F93CF93DF9302E02FEA40E060E083E89C
:100E1A000E945A04C1ECDAE580E098EF0E945F076D
:0C0E2A002197D1F7DF91CF910F9108952F
:100E36000E942F070E943D07EBE7F0E08081806467
:100E4600808387E690E00E9449070E9428060E9458
:080E560090070E94FB040895BF
:100E5E002198299AE8E6F0E0808181608083EBE6B4
:0C0E6E00F0E08081826080837894089519
:100E7A003A9A3B9A3C9A3D9A549A559A569A579A54
:080E8A00209A0E9471070895EF
:100E92009093C5008093C40088E18093C1008EE0E6
:060EA2008093C2000895D8
:100EA800EC010E94AB070E94AA07CE010E94AC0782
:060EB800CE010E94A80714
:100EBE00CF93C82F892F0E9489078C2F0E948907F4
:040ECE00CF91089523
:100ED20088B1837C88B98BB18F708BB928980895BB
:100EE20088B18C6388B98BB1806F8BB9289A0895C9
:100EF200E0ECF0E0908195FFFDCF8093C60008956D
:100F020057FD03C06591759108956191719108959E
:0E0F12002A988EBD0DB407FEFDCF2A9A0895D1
:0C0F200084B18C6284B980E58CBD08951A
:0C0F2C00EE0FFF1F0590F491E02D0994DA
:0A0F38000E94C00608F481E008954D
:0A0F42000E94C00608F48FEF089526
:040F4C000C94000001
:040F50000E94B50046
:020F54000895FE
:020F56000895FC
:020F58000895FA
:100F5A0008EF00180012001500130016FDFDFDFD34
:100F6A0000EF04EE041BFEFEFEFE90EF044A3F7FF4
:100F7A0004EE064390EF83090008AF0B000A000550
:100F8A000006000700EF0CEE90EF8000B0EF024978
:100F9A0000EF017F81E102E276E283E1018090EFD6
:020FAA00000045
:020FAC00FF0044
:00000001FF
