:100000000C943D000C94A1010C94A1010C940401EA
:100010000C94A1010C94A1010C94A1010C94A101D8
:100020000C94A1010C94A1010C94A1010C94A101C8
:100030000C94A1010C94A1010C94A1010C94A101B8
:100040000C94A1010C94A1010C94A1010C94A101A8
:100050000C94A1010C9467000C94A1010C94A101D3
:100060000C94A1010C94A101010001028001020184
:100070000400035001040106800011241FBECFEFCD
:10008000D8E0DEBFCDBFE8E6F0E040E017C0B591B4
:10009000A59135912591059107FD0CC0959185910C
:1000A000EF01F92FE82F05900D92A217B307D9F7AA
:1000B000FE0104C01D92A217B307E1F7E937F40768
:0E00C00031F70E9470010C948601F894FFCF76
:1000CE001F921FB61F9211242F933F938F939F93CE
:1000DE00809105018F5F809305018091050181302C
:1000EE0059F480E094E09093030180930201109202
:1000FE0001011092000142C0809105018B3088F5FC
:10010E002091780030917900809102019091030145
:10011E008217930728F0809178009091790004C09F
:10012E00809102019091030190930301809302014B
:10013E002091780030917900809100019091010119
:10014E002817390728F0809178009091790004C023
:10015E008091000190910101909301018093000123
:10016E000DC0109205018091000190910101209126
:10017E00020130910301821B809304019F918F91A4
:0C018E003F912F911F901FBE1F901895ED
:10019A00ECE7F0E080818064808380818F778083C0
:1001AA0080818E7F808380818D7F808380818B7F19
:1001BA0080838081877F8083EBE7F0E080818E7F78
:1001CA00808380818D7F808380818B7F8083EAE733
:1001DA00F0E0808184608083808182608083808176
:1001EA00816080838081886080838081806280834F
:0E01FA00808180688083808180648083089586
:100208001F920F920FB60F9211242F933F934F9383
:100218005F936F937F938F939F93AF93BF93EF9366
:10022800FF93199B0E942901FF91EF91BF91AF9114
:100238009F918F917F916F915F914F913F912F91F6
:0A0248000F900FBE0F901F90189545
:10025200EAE7F0E080818F77808380917C0080FFE5
:1002620006C0ECE7F0E080818E7F808305C0ECE77A
:10027200F0E0808181608083EAE7F0E0808180683D
:0A02820080838081806480830895EA
:10028C000E9456010E946401EBE7F0E080818064DB
:10029C00808387E690E00E947B010E94CD00089548
:1002AC002198299AE8E6F0E0808181608083EBE672
:0C02BC00F0E080818260808378940895D7
:1002C8003A9A3B9A3C9A3D9A549A559A569A579A12
:0802D800209A0E949101089593
:1002E0000E944601C8E7D0E0888199818881998180
:0602F0000E949901F9CF04
:1002F6009093C5008093C40088E18093C1008EE08E
:060306008093C20008957F
:10030C00EC010E94A6010E94A501CE010E94A7014A
:06031C00CE010E94A301C6
:1003220088B18C6388B98BB1806F8BB9289A089594
:10033200E0ECF0E0908195FFFDCF8093C600089538
:040342000C94000017
:040346000E946500AC
:02034A00089514
:02034C00089512
:02034E00089510
:020350000004A7
:00000001FF
