:100000000C9434000C947D000C947D000C947D00C5
:100010000C9465000C947D000C947D000C947D0084
:100020000C947D000C947D000C947D000C947D005C
:100030000C947D000C947D000C947D000C947D004C
:100040000C947D000C947D000C947D000C947D003C
:100050000C947D000C947D000C947D000C947D002C
:100060000C947D000C947D0011241FBECFEFD8E0CE
:10007000DEBFCDBF0E9477000C945A00F894FFCFEA
:100080002198299A7894E8E6F0E080818160808365
:0C009000EBE6F0E0808182608083089540
:10009C003A9A3B9A3C9A3D9A549A559A569A579A40
:0800AC00209A0E946F000895E4
:1000B400EC010E9482000E948100CE010E94830014
:0600C400CE010E947F0046
:1000CA008F938FB78F9388B1887088B98F918FBFBC
:0400DA008F91189555
:1000DE0088B1837C88B98BB18F708BB928980895BD
:0C00EE0078940E9440000E944E00FFCF5A
:0400FA000C94000062
:0400FE000E943E001E
:0201020008955E
:0201040008955C
:0201060008955A
:00000001FF
