:100000000C943D000C94C6010C94C6010C94100194
:100010000C94C6010C94C6010C94C6010C94C60144
:100020000C94C6010C94C6010C94C6010C94C60134
:100030000C94C6010C94C6010C94C6010C94C60124
:100040000C94C6010C94C6010C94C6010C94C60114
:100050000C94C6010C9467000C94C6010C94C60164
:100060000C94C6010C94C60101000102800102013A
:100070000400039A01040107800011241FBECFEF82
:10008000D8E0DEBFCDBFE8E6F0E040E017C0B591B4
:10009000A59135912591059107FD0CC0959185910C
:1000A000EF01F92FE82F05900D92A217B307D9F7AA
:1000B000FE0104C01D92A217B307E1F7E937F40768
:0E00C00031F70E9466010C949B01F894FFCF6B
:1000CE001F921FB61F9211242F933F938F939F93CE
:1000DE0080917C0080FF05C080917900809305019E
:1000EE0056C0809106018F5F8093060180910601B4
:1000FE00813059F48FEF90E09093030180930201C9
:10010E00109201011092000142C0809106018B30C5
:10011E0088F52091780030917900809102019091BC
:10012E0003018217930728F080917800909179004F
:10013E0004C080910201909103019093030180937A
:10014E000201209178003091790080910001909108
:10015E0001012817390728F08091780090917900D5
:10016E0004C0809100019091010190930101809350
:10017E0000010DC0109206018091000190910101C5
:10018E002091020130910301821B809305019F9102
:0E019E008F913F912F911F901FBE1F901895BB
:1001AC00ECE7F0E080818064808380818F778083AE
:1001BC0080818062808380818E7F808380818D7F2F
:1001CC00808380818B7F80838081877F8083EBE736
:1001DC00F0E080818E7F808380818D7F8083808121
:1001EC008B7F8083EAE7F0E080818460808380816C
:1001FC00826080838081816080838081886080833D
:10020C00808180628083808180688083808180642B
:04021C00808308953E
:100220001F920F920FB60F9211242F933F934F936B
:100230005F936F937F938F939F93AF93BF93EF934E
:10024000FF93199B0E943501FF91EF91BF91AF91F0
:100250009F918F917F916F915F914F913F912F91DE
:0A0260000F900FBE0F901F9018952D
:10026A00EAE7F0E080818F77808380917C0080FFCD
:10027A0008C00E94AE01ECE7F0E080818E7F8083A7
:10028A0007C00E94A601ECE7F0E0808181608083CC
:10029A00EAE7F0E0808180688083808180648083DF
:0202AA000895B5
:1002AC000E9476010E948401EBE7F0E0808180647B
:1002BC00808387E690E00E9490010E94D60008950A
:1002CC000E94560180910401811105C00E94BE015B
:1002DC0080930401F7CF0E94B60110920401F2CF73
:1002EC002198299AE8E6F0E0808181608083EBE632
:0C02FC00F0E08081826080837894089597
:100308003A9A3B9A3C9A3D9A549A559A569A579AD1
:08031800209A0E94AE01089535
:100320009093C5008093C40088E18093C1008EE063
:060330008093C200089555
:10033600EC010E94CB010E94CA01CE010E94CC01B1
:06034600CE010E94C80177
:10034C0088B1837C88B98BB18F708BB9289808954C
:10035C0088B18C6388B98BB1806F8BB9289A08955A
:10036C00E0ECF0E0908195FFFDCF8093C6000895FE
:10037C00E0ECF0E080818823ECF78091C6000895D2
:04038C000C940000CD
:040390000E94650062
:020394000895CA
:020396000895C8
:020398000895C6
:02039A00FF0062
:00000001FF
