:100000000C9440000C94C2030C94C2030C94C002E4
:100010000C94C2030C94C2030C94C2030C94C2034C
:100020000C94C2030C94C2030C94C2030C94C2033C
:100030000C94C2030C94C2030C94C2030C94C2032C
:100040000C94C2030C94C2030C94C2030C94C2031C
:100050000C94C2030C94D5010C94C2030C94C203FB
:100060000C94C2030C94C2030100015200079201D8
:1000700052015480015401560007E4015601588092
:1000800011241FBECFEFD8E0DEBFCDBFE8E6F0E021
:1000900040E017C0B591A59135912591059107FDD7
:1000A0000CC095918591EF01F92FE82F05900D92E5
:1000B000A217B307D9F7FE0104C01D92A217B30718
:1000C000E1F7E038F40731F70E9482030C947703DC
:0400D000F894FFCFD2
:1000D400CF92DF92EF92FF926B017C010E948B031F
:1000E40020E030E0A901C701B6010E94B8038111E4
:1000F40002C00E948B0320E030E0A901C701B601D1
:100104000E94BD0318165CF420E030E040E351E4A3
:10011400C701B6010E94B80318160CF0429A20E0F9
:1001240030E040E351E4C701B6010E94BD03181654
:100134006CF420E030E040EB51E4C701B6010E94CA
:10014400B80318161CF088B18C6088B920E030E040
:1001540040EB51E4C701B6010E94BD0318166CF4CC
:1001640020E030E044E052E4C701B6010E94B80345
:1001740018161CF088B18C6188B920E030E044E0A6
:1001840052E4C701B6010E94BD0318166CF420E0C6
:1001940030E040E352E4C701B6010E94B8031816E8
:1001A4001CF088B18C6388B920E030E040E352E46D
:1001B400C701B6010E94BD03181674F420E030E0B4
:1001C4004CE552E4C701B6010E94B803181624F0A6
:1001D40088B18C6388B95C9A20E030E04CE552E445
:1001E400C701B6010E94BD03181684F420E030E074
:1001F40044E852E4C701B6010E94B803181634F06B
:1002040088B18C6388B98BB180638BB920E030E00E
:1002140044E852E4C701B6010E94BD03181684F4F1
:1002240020E030E04AE952E4C701B6010E94B80375
:10023400181634F088B18C6388B98BB180678BB998
:1002440020E030E04AE952E4C701B6010E94BD0350
:10025400181684F420E030E040EB52E4C701B60104
:100264000E94B803181634F088B18C6388B98BB136
:10027400806F8BB920E030E040EB52E4C701B60157
:100284000E94BD0318168CF420E030E048EC52E4E0
:10029400C701B6010E94B80318163CF088B18C63FC
:1002A40088B98BB1806F8BB9289AFF90EF90DF905B
:0402B400CF9008954A
:1002B800CF93DF93CDB7DEB7C654D1090FB6F89404
:1002C800DEBF0FBECDBF86E4ECE0F1E0BE016F5F9C
:1002D8007F4FDB0101900D928A95E1F72FEF85EAB8
:1002E8009EE0215080409040E1F700C000008BB1B3
:1002F8001BB82FE789EA93E0215080409040E1F74E
:1003080000C000002A9A2FE789EA93E02150804034
:100318009040E1F700C000005A9A2FE789EA93E07D
:10032800215080409040E1F700C000005B9A2FE721
:1003380089EA93E0215080409040E1F700C0000036
:1003480080E842E050E00E9444022FE789EA93E007
:10035800215080409040E1F700C00000BE016B5F73
:100368007F4F80E84AE050E00E9444022FE789EA84
:1003780093E0215080409040E1F700C00000BE01AA
:10038800675E7F4F80E847E150E00E944402CA5B05
:10039800DF4F0FB6F894DEBF0FBECDBFDF91CF9110
:0203A8000895B6
:1003AA001F921FB61F9211242F933F938F939F93EF
:1003BA0080917C0080FF05C080917900809356016E
:1003CA0056C0809157018F5F8093570180915701E2
:1003DA00813059F48FEF90E0909355018093540146
:1003EA00109253011092520142C0809157018B30F2
:1003FA0088F520917800309179008091540190918C
:10040A0055018217930728F080917800909179001E
:10041A0004C08091540190915501909355018093A5
:10042A005401209178003091790080915201909185
:10043A0053012817390728F08091780090917900A4
:10044A0004C080915201909153019093530180937B
:10045A0052010DC01092570180915201909153019F
:10046A002091540130915501821B809356019F912E
:0E047A008F913F912F911F901FBE1F901895DC
:100488004F925F926F927F928F929F92AF92BF929C
:10049800CF92DF92EF922A01612C712C4114510402
:1004A8006104710419F1C62ED72EE82E812C912CE7
:1004B80054015A9AF6015E2D0E94A303872F0E94C9
:1004C800AB03F6018491E7FC80810E94AB035A9844
:1004D8008FEF881A980AA80AB80A92E0C90ED11CA8
:1004E800E11C84149504A604B70418F3EF90DF9078
:1004F800CF90BF90AF909F908F907F906F905F90BC
:040508004F90089573
:10050C00ECE7F0E080818064808380818F7780834A
:10051C0080818062808380818E7F808380818D7FCB
:10052C00808380818B7F80838081877F8083EBE7D2
:10053C00F0E080818E7F808380818D7F80838081BD
:10054C008B7F8083EAE7F0E0808184608083808108
:10055C0082608083808181608083808188608083D9
:10056C0080818062808380818068808380818064C8
:04057C0080830895DB
:100580001F920F920FB60F9211242F933F934F9308
:100590005F936F937F938F939F93AF93BF93EF93EB
:1005A000FF93E8E6F0E0908181E08927808388E589
:1005B00092E00197F1F7199905C00E941D038FEF92
:1005C0000E949B03E8E6F0E0908181E08927808328
:1005D000FF91EF91BF91AF919F918F917F916F911B
:1005E0005F914F913F912F910F900FBE0F901F90F1
:0205F00018955C
:1005F200990F0008550FAA0BE0E8FEEF1616170632
:10060200E807F907C0F012161306E407F50798F099
:10061200621B730B840B950B39F40A2661F0232BB2
:10062200242B252B21F408950A2609F4A140A6952E
:080632008FEF811D811D089569
:10063A00EAE7F0E080818F77808380917C0080FFF9
:10064A0008C00E949303ECE7F0E080818E7F8083EC
:10065A0007C00E948B03ECE7F0E080818160808311
:10066A00EAE7F0E08081806880838081806480830B
:02067A000895E1
:10067C000E9452030E946003EBE7F0E080818064EB
:10068C00808387E690E00E946C030E9486020E94A1
:08069C00B2030E945C01089505
:1006A4002198299AE8E6F0E0808181608083EBE676
:0C06B400F0E080818260808378940895DB
:1006C0003A9A3B9A3C9A3D9A549A559A569A579A16
:0806D000209A0E949303089593
:1006D8009093C5008093C40088E18093C1008EE0A8
:0606E8008093C20008959A
:1006EE00EC010E94C7030E94C603CE010E94C803FC
:0606FE00CE010E94C403BE
:100704000E943E0360E070E088E492E40E946A0084
:02071400FFCF15
:1007160088B1837C88B98BB18F708BB9289808957E
:1007260088B18C6388B98BB1806F8BB9289A08958C
:10073600E0ECF0E0908195FFFDCF8093C600089530
:1007460057FD03C065917591089561917191089562
:0E0756002A988EBD0DB407FEFDCF2A9A089595
:0C07640084B18C6284B980E58CBD0895DE
:0A0770000E94F90208F481E00895E8
:0A077A000E94F90208F48FEF0895C1
:040784000C940000D1
:040788000E94680063
:02078C000895CE
:02078E000895CC
:020790000895CA
:1007920008EF00180012001500130016FDFDFDFD04
:1007A20000EF04EE041BFEFEFEFE90EF044A3F7FC4
:1007B20004EE064390EF83090008AF0B000A000520
:1007C2000006000700EF0CEE90EF8000B0EF024948
:1007D20000EF017F81E102E276E283E1018090EFA6
:0207E200000015
:0207E400FF0014
:00000001FF
